{
  "_format": "hh-sol-artifact-1",
  "contractName": "NFTMarket",
  "sourceName": "contracts/NFTMarket.sol",
  "abi": [
    {
      "inputs": [],
      "stateMutability": "nonpayable",
      "type": "constructor"
    },
    {
      "anonymous": false,
      "inputs": [
        {
          "indexed": true,
          "internalType": "uint256",
          "name": "itemId",
          "type": "uint256"
        },
        {
          "indexed": true,
          "internalType": "address",
          "name": "nsftContract",
          "type": "address"
        },
        {
          "indexed": true,
          "internalType": "uint256",
          "name": "tokenId",
          "type": "uint256"
        },
        {
          "indexed": false,
          "internalType": "address",
          "name": "seller",
          "type": "address"
        },
        {
          "indexed": false,
          "internalType": "address",
          "name": "owner",
          "type": "address"
        },
        {
          "indexed": false,
          "internalType": "uint256",
          "name": "price",
          "type": "uint256"
        },
        {
          "indexed": false,
          "internalType": "bool",
          "name": "sold",
          "type": "bool"
        },
        {
          "indexed": false,
          "internalType": "uint256",
          "name": "likes",
          "type": "uint256"
        }
      ],
      "name": "MarketItemCreated",
      "type": "event"
    },
    {
      "inputs": [
        {
          "internalType": "address",
          "name": "nftContract",
          "type": "address"
        },
        {
          "internalType": "uint256",
          "name": "tokenId",
          "type": "uint256"
        },
        {
          "internalType": "uint256",
          "name": "price",
          "type": "uint256"
        }
      ],
      "name": "createMarketItem",
      "outputs": [],
      "stateMutability": "payable",
      "type": "function"
    },
    {
      "inputs": [
        {
          "internalType": "address",
          "name": "nftContract",
          "type": "address"
        },
        {
          "internalType": "uint256",
          "name": "itemId",
          "type": "uint256"
        }
      ],
      "name": "createMarketSale",
      "outputs": [],
      "stateMutability": "payable",
      "type": "function"
    },
    {
      "inputs": [],
      "name": "fetchUnsoldItems",
      "outputs": [
        {
          "components": [
            {
              "internalType": "uint256",
              "name": "itemId",
              "type": "uint256"
            },
            {
              "internalType": "address",
              "name": "nsftContract",
              "type": "address"
            },
            {
              "internalType": "uint256",
              "name": "tokenId",
              "type": "uint256"
            },
            {
              "internalType": "address payable",
              "name": "seller",
              "type": "address"
            },
            {
              "internalType": "address payable",
              "name": "owner",
              "type": "address"
            },
            {
              "internalType": "uint256",
              "name": "price",
              "type": "uint256"
            },
            {
              "internalType": "bool",
              "name": "sold",
              "type": "bool"
            },
            {
              "internalType": "uint256",
              "name": "likes",
              "type": "uint256"
            }
          ],
          "internalType": "struct NFTMarket.MarketItem[]",
          "name": "",
          "type": "tuple[]"
        }
      ],
      "stateMutability": "view",
      "type": "function"
    },
    {
      "inputs": [],
      "name": "fetchUserCreatedNFTs",
      "outputs": [
        {
          "components": [
            {
              "internalType": "uint256",
              "name": "itemId",
              "type": "uint256"
            },
            {
              "internalType": "address",
              "name": "nsftContract",
              "type": "address"
            },
            {
              "internalType": "uint256",
              "name": "tokenId",
              "type": "uint256"
            },
            {
              "internalType": "address payable",
              "name": "seller",
              "type": "address"
            },
            {
              "internalType": "address payable",
              "name": "owner",
              "type": "address"
            },
            {
              "internalType": "uint256",
              "name": "price",
              "type": "uint256"
            },
            {
              "internalType": "bool",
              "name": "sold",
              "type": "bool"
            },
            {
              "internalType": "uint256",
              "name": "likes",
              "type": "uint256"
            }
          ],
          "internalType": "struct NFTMarket.MarketItem[]",
          "name": "",
          "type": "tuple[]"
        }
      ],
      "stateMutability": "view",
      "type": "function"
    },
    {
      "inputs": [],
      "name": "fetchUserOwnedNFTs",
      "outputs": [
        {
          "components": [
            {
              "internalType": "uint256",
              "name": "itemId",
              "type": "uint256"
            },
            {
              "internalType": "address",
              "name": "nsftContract",
              "type": "address"
            },
            {
              "internalType": "uint256",
              "name": "tokenId",
              "type": "uint256"
            },
            {
              "internalType": "address payable",
              "name": "seller",
              "type": "address"
            },
            {
              "internalType": "address payable",
              "name": "owner",
              "type": "address"
            },
            {
              "internalType": "uint256",
              "name": "price",
              "type": "uint256"
            },
            {
              "internalType": "bool",
              "name": "sold",
              "type": "bool"
            },
            {
              "internalType": "uint256",
              "name": "likes",
              "type": "uint256"
            }
          ],
          "internalType": "struct NFTMarket.MarketItem[]",
          "name": "",
          "type": "tuple[]"
        }
      ],
      "stateMutability": "view",
      "type": "function"
    },
    {
      "inputs": [],
      "name": "getListingPrice",
      "outputs": [
        {
          "internalType": "uint256",
          "name": "",
          "type": "uint256"
        }
      ],
      "stateMutability": "view",
      "type": "function"
    },
    {
      "inputs": [
        {
          "internalType": "uint256",
          "name": "id",
          "type": "uint256"
        }
      ],
      "name": "increment_nft_likes",
      "outputs": [],
      "stateMutability": "nonpayable",
      "type": "function"
    }
  ],
  "bytecode": "0x608060405267016345785d8a000060045534801561001c57600080fd5b50600160008190555033600360006101000a81548173ffffffffffffffffffffffffffffffffffffffff021916908373ffffffffffffffffffffffffffffffffffffffff160217905550611a96806100756000396000f3fe6080604052600436106100705760003560e01c80635c827bef1161004e5780635c827bef146100e5578063b62b6f7214610110578063c23b139e1461013b578063faa5088c1461015757610070565b806312e8558514610075578063469eebdf146100a057806358eb2df5146100c9575b600080fd5b34801561008157600080fd5b5061008a610182565b604051610097919061176f565b60405180910390f35b3480156100ac57600080fd5b506100c760048036038101906100c291906113fd565b61018c565b005b6100e360048036038101906100de91906113ae565b6101bd565b005b3480156100f157600080fd5b506100fa610535565b60405161010791906116cd565b60405180910390f35b34801561011c57600080fd5b506101256108f0565b60405161013291906116cd565b60405180910390f35b61015560048036038101906101509190611372565b610c27565b005b34801561016357600080fd5b5061016c610ee0565b60405161017991906116cd565b60405180910390f35b6000600454905090565b60016005600083815260200190815260200160002060070160008282546101b391906117d4565b9250508190555050565b60026000541415610203576040517f08c379a00000000000000000000000000000000000000000000000000000000081526004016101fa9061172f565b60405180910390fd5b60026000819055506000811161024e576040517f08c379a00000000000000000000000000000000000000000000000000000000081526004016102459061174f565b60405180910390fd5b6004543414610292576040517f08c379a00000000000000000000000000000000000000000000000000000000081526004016102899061170f565b60405180910390fd5b61029c600161129b565b60006102a860016112b1565b90506040518061010001604052808281526020018573ffffffffffffffffffffffffffffffffffffffff1681526020018481526020013373ffffffffffffffffffffffffffffffffffffffff168152602001600073ffffffffffffffffffffffffffffffffffffffff1681526020018381526020016000151581526020016000815250600560008381526020019081526020016000206000820151816000015560208201518160010160006101000a81548173ffffffffffffffffffffffffffffffffffffffff021916908373ffffffffffffffffffffffffffffffffffffffff1602179055506040820151816002015560608201518160030160006101000a81548173ffffffffffffffffffffffffffffffffffffffff021916908373ffffffffffffffffffffffffffffffffffffffff16021790555060808201518160040160006101000a81548173ffffffffffffffffffffffffffffffffffffffff021916908373ffffffffffffffffffffffffffffffffffffffff16021790555060a0820151816005015560c08201518160060160006101000a81548160ff02191690831515021790555060e082015181600701559050508373ffffffffffffffffffffffffffffffffffffffff166323b872dd3330866040518463ffffffff1660e01b815260040161049b93929190611643565b600060405180830381600087803b1580156104b557600080fd5b505af11580156104c9573d6000803e3d6000fd5b50505050828473ffffffffffffffffffffffffffffffffffffffff16827f51f952abc16b666e917cf9a7e0f49aad730694a1b9c053652e9e3520691b51593360008760008060405161051f95949392919061167a565b60405180910390a4506001600081905550505050565b6060600061054360016112b1565b905060008060005b838110156105ec573373ffffffffffffffffffffffffffffffffffffffff166005600060018461057b91906117d4565b815260200190815260200160002060040160009054906101000a900473ffffffffffffffffffffffffffffffffffffffff1673ffffffffffffffffffffffffffffffffffffffff1614156105d9576001836105d691906117d4565b92505b80806105e4906118ca565b91505061054b565b5060008267ffffffffffffffff81111561062f577f4e487b7100000000000000000000000000000000000000000000000000000000600052604160045260246000fd5b60405190808252806020026020018201604052801561066857816020015b6106556112bf565b81526020019060019003908161064d5790505b50905060005b848110156108e5573373ffffffffffffffffffffffffffffffffffffffff166005600060018461069e91906117d4565b815260200190815260200160002060040160009054906101000a900473ffffffffffffffffffffffffffffffffffffffff1673ffffffffffffffffffffffffffffffffffffffff1614156108d2576000600560006001846106ff91906117d4565b815260200190815260200160002060000154905060006005600083815260200190815260200160002090508060405180610100016040529081600082015481526020016001820160009054906101000a900473ffffffffffffffffffffffffffffffffffffffff1673ffffffffffffffffffffffffffffffffffffffff1673ffffffffffffffffffffffffffffffffffffffff168152602001600282015481526020016003820160009054906101000a900473ffffffffffffffffffffffffffffffffffffffff1673ffffffffffffffffffffffffffffffffffffffff1673ffffffffffffffffffffffffffffffffffffffff1681526020016004820160009054906101000a900473ffffffffffffffffffffffffffffffffffffffff1673ffffffffffffffffffffffffffffffffffffffff1673ffffffffffffffffffffffffffffffffffffffff168152602001600582015481526020016006820160009054906101000a900460ff161515151581526020016007820154815250508486815181106108b5577f4e487b7100000000000000000000000000000000000000000000000000000000600052603260045260246000fd5b60200260200101819052506001856108cd91906117d4565b945050505b80806108dd906118ca565b91505061066e565b508094505050505090565b606060006108fe60016112b1565b9050600061090c60026112b1565b61091660016112b1565b610920919061182a565b90506000808267ffffffffffffffff811115610965577f4e487b7100000000000000000000000000000000000000000000000000000000600052604160045260246000fd5b60405190808252806020026020018201604052801561099e57816020015b61098b6112bf565b8152602001906001900390816109835790505b50905060005b84811015610c1c57600073ffffffffffffffffffffffffffffffffffffffff16600560006001846109d591906117d4565b815260200190815260200160002060040160009054906101000a900473ffffffffffffffffffffffffffffffffffffffff1673ffffffffffffffffffffffffffffffffffffffff161415610c0957600060056000600184610a3691906117d4565b815260200190815260200160002060000154905060006005600083815260200190815260200160002090508060405180610100016040529081600082015481526020016001820160009054906101000a900473ffffffffffffffffffffffffffffffffffffffff1673ffffffffffffffffffffffffffffffffffffffff1673ffffffffffffffffffffffffffffffffffffffff168152602001600282015481526020016003820160009054906101000a900473ffffffffffffffffffffffffffffffffffffffff1673ffffffffffffffffffffffffffffffffffffffff1673ffffffffffffffffffffffffffffffffffffffff1681526020016004820160009054906101000a900473ffffffffffffffffffffffffffffffffffffffff1673ffffffffffffffffffffffffffffffffffffffff1673ffffffffffffffffffffffffffffffffffffffff168152602001600582015481526020016006820160009054906101000a900460ff16151515158152602001600782015481525050848681518110610bec577f4e487b7100000000000000000000000000000000000000000000000000000000600052603260045260246000fd5b6020026020010181905250600185610c0491906117d4565b945050505b8080610c14906118ca565b9150506109a4565b508094505050505090565b60026000541415610c6d576040517f08c379a0000000000000000000000000000000000000000000000000000000008152600401610c649061172f565b60405180910390fd5b6002600081905550600060056000838152602001908152602001600020600501549050600060056000848152602001908152602001600020600201549050813414610ced576040517f08c379a0000000000000000000000000000000000000000000000000000000008152600401610ce4906116ef565b60405180910390fd5b6005600084815260200190815260200160002060030160009054906101000a900473ffffffffffffffffffffffffffffffffffffffff1673ffffffffffffffffffffffffffffffffffffffff166108fc349081150290604051600060405180830381858888f19350505050158015610d69573d6000803e3d6000fd5b508373ffffffffffffffffffffffffffffffffffffffff166323b872dd3033846040518463ffffffff1660e01b8152600401610da793929190611643565b600060405180830381600087803b158015610dc157600080fd5b505af1158015610dd5573d6000803e3d6000fd5b50505050336005600085815260200190815260200160002060040160006101000a81548173ffffffffffffffffffffffffffffffffffffffff021916908373ffffffffffffffffffffffffffffffffffffffff16021790555060016005600085815260200190815260200160002060060160006101000a81548160ff021916908315150217905550610e67600261129b565b600360009054906101000a900473ffffffffffffffffffffffffffffffffffffffff1673ffffffffffffffffffffffffffffffffffffffff166108fc6004549081150290604051600060405180830381858888f19350505050158015610ed1573d6000803e3d6000fd5b50505060016000819055505050565b60606000610eee60016112b1565b905060008060005b83811015610f97573373ffffffffffffffffffffffffffffffffffffffff1660056000600184610f2691906117d4565b815260200190815260200160002060030160009054906101000a900473ffffffffffffffffffffffffffffffffffffffff1673ffffffffffffffffffffffffffffffffffffffff161415610f8457600183610f8191906117d4565b92505b8080610f8f906118ca565b915050610ef6565b5060008267ffffffffffffffff811115610fda577f4e487b7100000000000000000000000000000000000000000000000000000000600052604160045260246000fd5b60405190808252806020026020018201604052801561101357816020015b6110006112bf565b815260200190600190039081610ff85790505b50905060005b84811015611290573373ffffffffffffffffffffffffffffffffffffffff166005600060018461104991906117d4565b815260200190815260200160002060030160009054906101000a900473ffffffffffffffffffffffffffffffffffffffff1673ffffffffffffffffffffffffffffffffffffffff16141561127d576000600560006001846110aa91906117d4565b815260200190815260200160002060000154905060006005600083815260200190815260200160002090508060405180610100016040529081600082015481526020016001820160009054906101000a900473ffffffffffffffffffffffffffffffffffffffff1673ffffffffffffffffffffffffffffffffffffffff1673ffffffffffffffffffffffffffffffffffffffff168152602001600282015481526020016003820160009054906101000a900473ffffffffffffffffffffffffffffffffffffffff1673ffffffffffffffffffffffffffffffffffffffff1673ffffffffffffffffffffffffffffffffffffffff1681526020016004820160009054906101000a900473ffffffffffffffffffffffffffffffffffffffff1673ffffffffffffffffffffffffffffffffffffffff1673ffffffffffffffffffffffffffffffffffffffff168152602001600582015481526020016006820160009054906101000a900460ff16151515158152602001600782015481525050848681518110611260577f4e487b7100000000000000000000000000000000000000000000000000000000600052603260045260246000fd5b602002602001018190525060018561127891906117d4565b945050505b8080611288906118ca565b915050611019565b508094505050505090565b6001816000016000828254019250508190555050565b600081600001549050919050565b60405180610100016040528060008152602001600073ffffffffffffffffffffffffffffffffffffffff16815260200160008152602001600073ffffffffffffffffffffffffffffffffffffffff168152602001600073ffffffffffffffffffffffffffffffffffffffff16815260200160008152602001600015158152602001600081525090565b60008135905061135781611a32565b92915050565b60008135905061136c81611a49565b92915050565b6000806040838503121561138557600080fd5b600061139385828601611348565b92505060206113a48582860161135d565b9150509250929050565b6000806000606084860312156113c357600080fd5b60006113d186828701611348565b93505060206113e28682870161135d565b92505060406113f38682870161135d565b9150509250925092565b60006020828403121561140f57600080fd5b600061141d8482850161135d565b91505092915050565b60006114328383611583565b6101008301905092915050565b61144881611870565b82525050565b6114578161185e565b82525050565b6114668161185e565b82525050565b60006114778261179a565b61148181856117b2565b935061148c8361178a565b8060005b838110156114bd5781516114a48882611426565b97506114af836117a5565b925050600181019050611490565b5085935050505092915050565b6114d381611882565b82525050565b6114e281611882565b82525050565b6114f1816118b8565b82525050565b60006115046040836117c3565b915061150f82611942565b604082019050919050565b60006115276024836117c3565b915061153282611991565b604082019050919050565b600061154a601f836117c3565b9150611555826119e0565b602082019050919050565b600061156d601c836117c3565b915061157882611a09565b602082019050919050565b6101008201600082015161159a6000850182611625565b5060208201516115ad602085018261144e565b5060408201516115c06040850182611625565b5060608201516115d3606085018261143f565b5060808201516115e6608085018261143f565b5060a08201516115f960a0850182611625565b5060c082015161160c60c08501826114ca565b5060e082015161161f60e0850182611625565b50505050565b61162e816118ae565b82525050565b61163d816118ae565b82525050565b6000606082019050611658600083018661145d565b611665602083018561145d565b6116726040830184611634565b949350505050565b600060a08201905061168f600083018861145d565b61169c602083018761145d565b6116a96040830186611634565b6116b660608301856114d9565b6116c360808301846114e8565b9695505050505050565b600060208201905081810360008301526116e7818461146c565b905092915050565b60006020820190508181036000830152611708816114f7565b9050919050565b600060208201905081810360008301526117288161151a565b9050919050565b600060208201905081810360008301526117488161153d565b9050919050565b6000602082019050818103600083015261176881611560565b9050919050565b60006020820190506117846000830184611634565b92915050565b6000819050602082019050919050565b600081519050919050565b6000602082019050919050565b600082825260208201905092915050565b600082825260208201905092915050565b60006117df826118ae565b91506117ea836118ae565b9250827fffffffffffffffffffffffffffffffffffffffffffffffffffffffffffffffff0382111561181f5761181e611913565b5b828201905092915050565b6000611835826118ae565b9150611840836118ae565b92508282101561185357611852611913565b5b828203905092915050565b60006118698261188e565b9050919050565b600061187b8261188e565b9050919050565b60008115159050919050565b600073ffffffffffffffffffffffffffffffffffffffff82169050919050565b6000819050919050565b60006118c3826118ae565b9050919050565b60006118d5826118ae565b91507fffffffffffffffffffffffffffffffffffffffffffffffffffffffffffffffff82141561190857611907611913565b5b600182019050919050565b7f4e487b7100000000000000000000000000000000000000000000000000000000600052601160045260246000fd5b7f506c65617365207375626d6974207468652061736b696e67207072696365206960008201527f6e206f7264657220746f20636f6d706c65746520746865207075726368617365602082015250565b7f5072696365206d75737420626520657175616c20746f206c697374696e67207060008201527f7269636500000000000000000000000000000000000000000000000000000000602082015250565b7f5265656e7472616e637947756172643a207265656e7472616e742063616c6c00600082015250565b7f5072696365206d757374206265206174206c6561737420312077656900000000600082015250565b611a3b8161185e565b8114611a4657600080fd5b50565b611a52816118ae565b8114611a5d57600080fd5b5056fea26469706673582212206d280f913b9fde0ad912b4653333c02e64f3ed2344d9d8803626c865991b547d64736f6c63430008040033",
  "linkReferences": {},
  "deployedLinkReferences": {}
}